:100000000C945D000C9485000C9485000C94850084
:100010000C9485000C9485000C9485000C9485004C
:100020000C9485000C9485000C9485000C94E102DE
:100030000C9485000C9485000C9485000C9485002C
:100040000C9497020C9485000C9485000C94850008
:100050000C9485000C9485000C9485000C9485000C
:100060000C9485000C94850000000008000201003B
:100070000003040700000000000000000000000072
:10008000250028002B0000000000240027002A0083
:10009000040404040404040402020202020203032E
:1000A0000303030301020408102040800102040836
:1000B00010200102040810206F0511241FBECFEF8D
:1000C000D8E0DEBFCDBF11E0A0E0B1E0E0ECFCE0A5
:1000D00002C005900D92A032B107D9F721E0A0E24D
:1000E000B1E001C01D92A03BB207E1F710E0CDE501
:1000F000D0E004C02197FE010E945806CC35D107FC
:10010000C9F70E94B8030C945E060C94000090E0BE
:10011000FC01EC55FF4F249180579F4FFC018491C7
:10012000882399F090E0880F991FFC01EA57FF4F50
:10013000A591B491FC01E458FF4F859194918FB73C
:10014000F894EC91E22BEC938FBF089590E0FC01C2
:10015000E859FF4F2491FC01EC55FF4F3491FC010D
:10016000E057FF4FE491EE23C9F0222339F023300A
:1001700001F1A8F4213019F1223029F1F0E0EE0F5D
:10018000FF1FE458FF4FA591B4918FB7F894EC91FD
:10019000611126C030953E233C938FBF08952730D0
:1001A000A9F02830C9F0243049F7809180008F7D74
:1001B00003C0809180008F7780938000DFCF84B56B
:1001C0008F7784BDDBCF84B58F7DFBCF8091B0006E
:1001D0008F778093B000D2CF8091B0008F7DF9CF20
:1001E0003E2BDACF3FB7F89480914B0190914C01B0
:1001F000A0914D01B0914E0126B5A89B05C02F3F9F
:1002000019F00196A11DB11D3FBFBA2FA92F982F3C
:100210008827BC01CD01620F711D811D911D42E037
:10022000660F771F881F991F4A95D1F708958F92FF
:100230009F92AF92BF92CF92DF92EF92FF924B01CB
:100240005C010E94F2006B017C010E94F2006C19BB
:100250007D098E099F09683E734081059105A8F3C9
:1002600021E0821A9108A108B10888EEC80E83E047
:10027000D81EE11CF11C81149104A104B10429F7DA
:10028000FF90EF90DF90CF90BF90AF909F908F90B6
:1002900008958F929F92AF92BF92FF920F931F93F8
:1002A000CF93DF93FC01F0808BE08F1508F44AC0F8
:1002B000828108E512E0081B110987FD1395000FE4
:1002C000111F000F111F8181C8E8D0E0C81BD109A0
:1002D00087FDD395CC0FDD1FCC0FDD1F4E010D2EFA
:1002E000000CAA08BB089801012E000C440B550B0A
:1002F000281939094A095B09DB010E94130624EB1E
:1003000030E040E050E00E94E905820E931EA41EFA
:10031000B51E8C169D062CF0E801801691060CF493
:10032000E4012297CC0FDD1F2FB7F8948F2D90E0BA
:10033000FC01EE0FFF1FE80FF91FEE5DFE4FD283A9
:10034000C1832FBFDF91CF911F910F91FF90BF907D
:10035000AF909F908F9008951F93CF93DF93EC0100
:10036000162F88818C3008F04DC0862F0E948700A0
:100370008881282F30E0F901EE0FFF1FE20FF31FF5
:10038000EE5DFE4F1F736081607C612B608319827C
:100390001A822CE0622F0E944C06829FB001112429
:1003A00030E020E0AB01420F531FFA01EE0FFF1FB8
:1003B000E40FF51FEE5DFE4F908196FD16C02F5F96
:1003C0003F4F2C30310571F781110FC01092800022
:1003D00082E0809381001092850010928400B19A8F
:1003E00080916F00826080936F00E8818E2F90E093
:1003F000FC01EE0FFF1FE80FF91FEE5DFE4F80813D
:10040000806480838881DF91CF911F910895CF927E
:10041000DF92EF92FF920F931F93CF93DF9300D061
:10042000CDB7DEB769834A83880F991F0091AE016B
:100430001091AF01000F111FE8E5F1E09F01285571
:1004400031402017310714F41192F8CF2981FC01B3
:10045000E85AFE4F21838A81808360E08091AC015D
:100460000E94A6001016110604F501501109F801AA
:10047000E85AFE4FE080D090AA01C090A80188E021
:10048000F82E6E2D661F6627661F8C2D0E94A60013
:10049000EE0C61E08D2D0E94A60060E08D2D0E9483
:1004A000A600FA94F110EDCFDDCF61E08091AC01B0
:1004B0000F900F90DF91CF911F910F91FF90EF90D0
:1004C000DF90CF900C94A600EF92FF920F931F93B2
:1004D000CF937C018C0183E0000F111F8A95E1F717
:1004E00008591E4FC1E0F80111928F0140E06C2FB6
:1004F000C7010E940702CF5FC930A9F7CF911F91B2
:100500000F91FF90EF900895462F2091AE0130910A
:10051000AF011216130654F4FC01E85AFE4F608B2B
:1005200061E0680F90E080E00C94070208951F924C
:100530000F920FB60F9211242F933F938F939F9397
:10054000AF93BF938091470190914801A0914901D9
:10055000B0914A013091460123E0230F2D3758F521
:100560000196A11DB11D20934601809347019093F0
:100570004801A0934901B0934A0180914B019091A9
:100580004C01A0914D01B0914E010196A11DB11DEC
:1005900080934B0190934C01A0934D01B0934E0179
:1005A000BF91AF919F918F913F912F910F900FBE6F
:1005B0000F901F90189526E8230F0296A11DB11DDC
:1005C000D2CF1F920F920FB60F9211242F933F9309
:1005D0004F935F936F937F938F939F93AF93BF934B
:1005E000CF93DF93EF93FF9380912001C09121017E
:1005F000D0E087FF24C01092850010928400809183
:1006000020018F5F8093200180912001082E000C33
:10061000990B8C179D0724F4809120018C30C4F134
:100620008091840090918500049680349C4908F460
:100630007AC08091840090918500049676C0809164
:100640002001082E000C990B8C179D07C4F6E09131
:1006500020018E2FEE0F990BFC01EE0FFF1FE80F0C
:10066000F91FEE5DFE4F808186FFC9CFE09120012A
:100670008E2FEE0F990BFC01EE0FFF1FE80FF91FF5
:10068000EE5DFE4F808160E08F730E94A600B7CFC1
:100690002091840030918500E09120018E2FEE0F93
:1006A000990BFC01EE0FFF1FE80FF91FEE5DFE4FE7
:1006B00081819281820F931F90938900809388009B
:1006C000E09120018E2FEE0F990BFC01EE0FFF1F22
:1006D000E80FF91FEE5DFE4F808186FF11C0E091AB
:1006E00020018E2FEE0F990BFC01EE0FFF1FE80F7C
:1006F000F91FEE5DFE4F808161E08F730E94A600BE
:10070000FF91EF91DF91CF91BF91AF919F918F9129
:100710007F916F915F914F913F912F910F900FBEFD
:100720000F901F90189580E49CE990938900809326
:1007300088008FEF80932001E3CFFC01909121018D
:100740009C3098F481E0890F809321019083892F58
:1007500090E0FC01EE0FFF1FE80FF91FEE5DFE4F6A
:1007600088EB9BE09283818308958FEF80830895C7
:10077000789484B5826084BD84B5816084BD85B57C
:10078000826085BD85B5816085BD80916E00816088
:1007900080936E001092810080918100826080932E
:1007A0008100809181008160809381008091800030
:1007B0008160809380008091B10084608093B1005B
:1007C0008091B00081608093B00080917A00846055
:1007D00080937A0080917A00826080937A00809181
:1007E0007A00816080937A0080917A00806880939B
:1007F0007A001092C1008091AE019091AF0118165D
:10080000190634F441E06CE090E080E00E940702B9
:100810008091AE019091AF011816190634F441E0B1
:100820006AE090E080E00E9407028091AE01909122
:10083000AF011816190624F490E080E00E946402CB
:1008400063E070E085E591E00E94AC0165E070E056
:1008500082E591E00E94AC0167E070E08FE491E0F6
:100860000E94AC016AE570E085E591E00E944901D3
:100870006FE070E080E090E00E9417016AE570E0B0
:1008800082E591E00E9449016FE070E080E090E035
:100890000E94170170E060E08FE491E00E9449013E
:1008A0006FE070E080E090E00E941701C8E5D1E0C1
:1008B000DD24D39440E8E42EF12C10E000E0C02EBB
:1008C0008091AE019091AF01181619067CF4488909
:1008D000C701002E02C0959587950A94E2F7482B30
:1008E000488B6D2D90E080E00E94070264E670E086
:1008F00080E090E00E9417018091AE019091AF01DD
:10090000181619067CF4A70102C055954795CA949C
:10091000E2F7409588894823488B6D2D90E080E070
:100920000E94070264E670E080E090E00E941701F8
:100930000F5F1F4F0830110511F6D394219689E0FF
:10094000D812BBCF00E010E030E0E32E31E0F32E10
:10095000D0E0C0E0F70161917F01CE010E948402E6
:100960002196C830D105B1F768EE73E080E090E0E1
:100970000E94170128E0E22E21E0F22ED0E0C0E034
:10098000F70161917F01CE010E9484022196C83057
:10099000D105B1F768EE73E080E090E00E941701A6
:1009A00090E1E92E91E0F92ED0E0C0E0F7016191ED
:1009B0007F01CE010E9484022196C830D105B1F793
:1009C00068EE73E080E090E00E94170188E1E82E75
:1009D00081E0F82ED0E0C0E0F70161917F01CE0107
:1009E0000E9484022196C830D105B1F768EE73E009
:1009F00080E090E00E94170170E060E085E591E002
:100A00000E94490164E670E080E090E00E941701D6
:100A100064EB70E082E591E00E94490164E670E0D9
:100A200080E090E00E94170170E060E08FE491E0C8
:100A30000E94490164E670E080E090E00E941701A6
:100A40006AE570E085E591E00E94490164E670E0A6
:100A500080E090E00E94170170E060E082E591E0A4
:100A60000E94490164E670E080E090E00E94170176
:100A700064EB70E08FE491E00E94490164E670E06D
:100A800080E090E00E94170164EB70E085E591E062
:100A90000E94490164E670E080E090E00E94170146
:100AA00064EB70E082E591E00E94490164E670E049
:100AB00080E090E00E94170170E060E08FE491E038
:100AC0000E94490164E670E080E090E00E94170116
:100AD0000115110509F438CF0E94000035CFCF93DE
:100AE000DF93CBE0D0E0D093A901C093A8018DE0C3
:100AF00090E09093AB018093AA018AE090E09093FC
:100B0000AD018093AC0181E090E09093AF018093C0
:100B1000AE018BE00E9487008091AA010E948700AD
:100B20008091AC010E94870061E08091AC010E943D
:100B3000A600D093A901C093A801E8E6F1E01192C4
:100B400081E0E83AF807D9F7D0E0C0E08091AE0143
:100B50009091AF01C817D90774F540E06FE0CE015E
:100B60000E9407028091AE019091AF01C817D9078A
:100B70002CF447E06BE0CE010E94070240E069E000
:100B8000CE010E9407028091AE019091AF01C8177B
:100B9000D9071CF4CE010E9464028091AE019091AD
:100BA000AF01C817D9072CF440E06CE0CE010E94D9
:100BB00007022196CBCF85E591E00E949D0382E557
:100BC00091E00E949D038FE491E0DF91CF910C941E
:100BD0009D03052E97FB1EF400940E94000657FD0E
:100BE00007D00E941B0607FC03D04EF40C940006AD
:100BF00050954095309521953F4F4F4F5F4F089549
:100C000090958095709561957F4F8F4F9F4F089578
:100C10000E943D06A59F900DB49F900DA49F800D4E
:100C2000911D11240895B7FF0C9408060E94080630
:100C3000821B930B0895A1E21A2EAA1BBB1BFD0178
:100C40000DC0AA1FBB1FEE1FFF1FA217B307E407AB
:100C5000F50720F0A21BB30BE40BF50B661F771F03
:100C6000881F991F1A9469F76095709580959095E3
:100C70009B01AC01BD01CF010895A29FB001B39FBC
:100C8000C001A39F700D811D1124911DB29F700D95
:100C9000811D1124911D0895991B79E004C0991FAD
:100CA000961708F0961B881F7A95C9F780950895C6
:100CB000EE0FFF1F0590F491E02D0994F894FFCFFB
:100CC0000066661818423C0000666618183C420030
:100CD00000422400003C42000066661818007E00B6
:00000001FF
